S00E00004C434448414C2E737265636E
S11300000C942A000C943F000C943F000C943F0085
S11300100C943F000C943F000C943F000C943F0060
S11300200C943F000C943F000C943F000C943F0050
S11300300C943F000C943F000C943F000C943F0040
S11300400C943F000C943F000C943F000C943F0030
S11300500C943F0011241FBECFE5D8E0DEBFCDBF16
S113006010E0A0E6B0E0E8E0F5E002C005900D92F3
S1130070AE37B107D9F70E9483010C9482020C9425
S11300800000CF93C82F80FF06C041E064E080E009
S11300900E940C0205C040E064E080E00E940C0273
S11300A0C1FF06C041E065E080E00E940C0205C08B
S11300B040E065E080E00E940C02C2FF06C041E01F
S11300C066E080E00E940C0205C040E066E080E04B
S11300D00E940C02C3FF06C041E067E080E00E947A
S11300E00C0205C040E067E080E00E940C02CF9162
S11300F0089541E064E080E00E94960141E065E0FB
S113010080E00E94960141E066E080E00E94960152
S113011041E067E080E00E94960141E061E081E017
S11301200E94960141E062E081E00E94960141E074
S113013063E081E00E9496010895CF93C82F40E0C8
S113014061E081E00E940C0240E062E081E00E94F4
S11301500C028C2F82958F700E94410041E063E075
S113016081E00E940C028FE99FE00197F1F700C043
S1130170000040E063E081E00E940C028C2F0E94AA
S1130180410041E063E081E00E940C028FE99FE0BE
S11301900197F1F700C0000040E063E081E00E94B5
S11301A00C02CF9108952FE785EB91E02150804018
S11301B09040E1F700C0000040E061E081E00E946F
S11301C00C0240E062E081E00E940C0282E00E94A6
S11301D0410041E063E081E00E940C028FE99FE06E
S11301E00197F1F700C0000040E063E081E00E9465
S11301F00C0288E20E949D0090EF9A95F1F78FE03F
S11302000E949D0020EF2A95F1F781E00E949D0055
S11302108FE39FE10197F1F700C0000086E00E94A0
S11302209D000895CF93C82F41E061E081E00E94D2
S11302300C0240E062E081E00E940C028C2F829567
S11302408F700E94410041E063E081E00E940C0253
S11302508FE99FE00197F1F700C0000040E063E000
S113026081E00E940C028C2F0E94410041E063E077
S113027081E00E940C028FE99FE00197F1F700C032
S1130280000040E063E081E00E940C02CF910895F9
S11302900F931F93CF93009771F415C00E9412011E
S11302A02FE78CE293E0215080409040E1F700C0BA
S11302B00000CF5F02C08C01C0E0F801EC0FF11D1B
S11302C080818111EBCFCF911F910F91089581E02F
S11302D00E949D008FE39FE10197F1F700C00000A9
S11302E00895813039F4603168F480E8860F0E9403
S11302F09D000895823031F4603120F480EC860F43
S11303000E949D0008950E9479000E94D3000E94DB
S1130310670180E690E00E94480160E082E00E946C
S113032071018FE690E00E944801FFCF843008F00D
S113033072C0683008F06FC0423008F06CC0813081
S113034001F130F08230B1F1833009F44CC00895EA
S1130350413059F42AB381E090E002C0880F991F1C
S11303606A95E2F7822B8ABB08952AB381E090E074
S113037002C0880F991F6A95E2F7809582238ABB91
S11303800895413059F427B381E090E002C0880F0A
S1130390991F6A95E2F7822B87BB089527B381E002
S11303A090E002C0880F991F6A95E2F78095822336
S11303B087BB0895413059F424B381E090E002C032
S11303C0880F991F6A95E2F7822B84BB089524B3A2
S11303D081E090E002C0880F991F6A95E2F780954A
S11303E0822384BB0895413059F421B381E090E025
S11303F002C0880F991F6A95E2F7822B81BB08958A
S113040021B381E090E002C0880F991F6A95E2F75A
S11304108095822381BB0895843008F072C06830CF
S113042008F06FC0423008F06CC0813001F130F048
S11304308230B1F1833009F44CC00895413059F44D
S11304402BB381E090E002C0880F991F6A95E2F710
S1130450822B8BBB08952BB381E090E002C0880F00
S1130460991F6A95E2F7809582238BBB08954130EA
S113047059F428B381E090E002C0880F991F6A956F
S1130480E2F7822B88BB089528B381E090E002C094
S1130490880F991F6A95E2F78095822388BB089597
S11304A0413059F425B381E090E002C0880F991FD0
S11304B06A95E2F7822B85BB089525B381E090E02D
S11304C002C0880F991F6A95E2F78095822385BB45
S11304D00895413059F422B381E090E002C0880FBE
S11304E0991F6A95E2F7822B82BB089522B381E0BB
S11304F090E002C0880F991F6A95E2F780958223E5
S10B050082BB0895F894FFCFBB
S11305084C6561726E20496E204465707468007E83
S11105184D6F68616D6564204E6162696C0010
S9030000FC
