S010000070726F6A656374312E73726563EC
S11300000C942A000C9447000C9447000C9447006D
S11300100C9447000C9447000C9447000C94470040
S11300200C9447000C9447000C9447000C94470030
S11300300C9447000C9447000C9447000C94470020
S11300400C9447000C9447000C9447000C94470010
S11300500C94470011241FBECFE5D8E0DEBFCDBF0E
S113006010E0A0E6B0E0E8EFFAE002C005900D92DF
S1130070A23AB107D9F720E0A2EAB0E001C01D928C
S1130080A43AB207E1F70E9490030C947A050C9409
S113009000000E9492040E94D20265E670E081E0B2
S11300A00E94730360E084E00E94F1028DE690E018
S11300B00E941003089563E1809162000E94F1029E
S11300C081E00E940D0360E0809163000E94F102D0
S11300D081E00E940D0380916400882309F4D1C05B
S11300E08FE10E94A204811118C02FEF89EF90E0E4
S11300F0215080409040E1F700C000008FE10E9451
S1130100A2048823D9F3809160008F5F80936000FC
S1130110843019F483E0809360008EE10E94A2048D
S1130120811118C02FEF89EF90E02150804090405A
S1130130E1F700C000008EE10E94A2048823D9F3F5
S113014080916000815080936000811103C081E040
S1130150809360008DE10E94A204811120C02FEFE2
S113016089EF90E0215080409040E1F700C000000A
S11301708DE10E94A2048823D9F363E18091620097
S11301800E94F10280E20E940D03809162008F5F61
S113019080936200843019F483E0809362008BE1E1
S11301A00E94A204811120C02FEF89EF90E021501A
S11301B080409040E1F700C000008BE10E94A2045F
S11301C08823D9F363E1809162000E94F10280E206
S11301D00E940D038091620081508093620081111E
S11301E003C081E0809362006091610080916000AF
S11301F00E94F10280E30E940D032FEF85EA9EE046
S1130200215080409040E1F700C0000060916100FF
S1130210809160000E94F10280E20E940D038091AF
S113022061008F5F80936100823109F0FAC0909180
S1130230600080916200981709F161E086E10E94F4
S1130240D5042FEF85EA9EE0215080409040E1F7ED
S113025000C0000060E086E10E94D5048091A30004
S11302608F5F8093A30068E084E00E94F1026091B4
S1130270A30070E080E090E00E94230310926400E9
S113028008958DE10E94A204811118C02FEF89EF17
S113029090E0215080409040E1F700C000008DE1E3
S11302A00E94A2048823D9F3809160008F5F809319
S11302B06000843019F483E0809360008BE10E9435
S11302C0A204811118C02FEF89EF90E021508040E3
S11302D09040E1F700C000008BE10E94A204882353
S11302E0D9F380916000815080936000811103C034
S11302F081E0809360008FE10E94A204811120C0FC
S11303002FEF89EF90E0215080409040E1F700C04A
S113031000008FE10E94A2048823D9F360E0809159
S113032063000E94F10280E20E940D038091630049
S11303308F5F80936300843019F483E080936300BB
S11303408EE10E94A204811120C02FEF89EF90E07A
S1130350215080409040E1F700C000008EE10E94EF
S1130360A2048823D9F360E0809163000E94F10223
S113037080E20E940D0380916300815080936300AA
S1130380811103C081E080936300609161008091DA
S113039060000E94F10280E30E940D032FEF85EAC2
S11303A09EE0215080409040E1F700C00000609141
S11303B06100809160000E94F10280E20E940D03BE
S11303C080916100815080936100813051F590915A
S11303D0600080916300981709F161E086E10E9452
S11303E0D5042FEF85EA9EE0215080409040E1F74C
S11303F000C0000060E086E10E94D5048091A20064
S11304008F5F8093A20063E184E00E94F102609117
S1130410A20070E080E090E00E94230381E08093DA
S113042064000895CF93C82F60E083E00E94D50450
S11304306C2F661F6627661F8CE00E94D504C6FBDE
S1130440662760F98AE00E94D504C5FB662760F937
S113045089E00E94D504C4FB662760F988E00E9405
S1130460D50461E082E00E94D5048FE99FE0019702
S1130470F1F700C0000060E082E00E94D5048FE93B
S11304809FE00197F1F700C00000C3FB662760F905
S11304908CE00E94D504C2FB662760F98AE00E94C2
S11304A0D504C1FB662760F989E00E94D5046C2F4E
S11304B0617088E00E94D50461E082E00E94D50466
S11304C08FE99FE00197F1F700C0000060E082E04F
S11304D00E94D5048FE99FE00197F1F700C0000066
S11304E0CF910895CF93C82F61E083E00E94D50493
S11304F06C2F661F6627661F8CE00E94D504C6FB1E
S1130500662760F98AE00E94D504C5FB662760F976
S113051089E00E94D504C4FB662760F988E00E9444
S1130520D50461E082E00E94D5048FE99FE0019741
S1130530F1F700C0000060E082E00E94D5048FE97A
S11305409FE00197F1F700C00000C3FB662760F944
S11305508CE00E94D504C2FB662760F98AE00E9401
S1130560D504C1FB662760F989E00E94D5046C2F8D
S1130570617088E00E94D50461E082E00E94D504A5
S11305808FE99FE00197F1F700C0000060E082E08E
S11305900E94D5048FE99FE00197F1F700C00000A5
S11305A0CF9108952FE785EB91E021508040904052
S11305B0E1F700C0000082E00E94120288E20E947B
S11305C012028CE00E94120281E00E9412028FE962
S11305D09FE00197F1F700C0000086E00E9412023C
S11305E00895813029F480E8860F0E94120208954C
S11305F0823029F480EC860F0E9412020895833021
S113060029F484E9860F0E9412020895843021F4AB
S113061084ED860F0E94120208950E9472020895CA
S11306200F931F93CF938C01C0E003C00E9472020A
S1130630CF5FF801EC0FF11D80818111F7CFCF91CD
S11306401F910F910895CF92DF92EF92FF921F9323
S1130650CF93DF93CDB7DEB72A970FB6F894DEBFFA
S11306600FBECDBF6B017C01672B682B692B19F47E
S113067080E30E940D0310E015C0C701B6012AE013
S113068030E040E050E00E945805E1E0F0E0EC0F7B
S1130690FD1FE10FF11D605D6083C22ED32EE42E99
S11306A0F52E1F5FC114D104E104F10431F7115098
S11306B00AC0E1E0F0E0EC0FFD1FE10FF11D8081C5
S11306C00E940D0311501F3FA1F72A960FB6F8940C
S11306D0DEBF0FBECDBFDF91CF911F91FF90EF9092
S11306E0DF90CF9008950F931F93CF938B0190E0E9
S11306F00896880F880F880F0E941202C0E007C076
S1130700F801EC0FF11D80810E947202CF5FC830A6
S1130710B8F380E80E941202CF911F910F910895BF
S11307200E9449000E945B00FDCF982F9770869528
S113073086958695613009F455C020F0623009F43D
S1130740A1C008958130C1F028F0823039F183309E
S1130750B9F108954AB321E030E0B90102C0660F4F
S1130760771F9A95E2F7CB01942F982B9ABB9BB3F2
S1130770809589238BBB089547B321E030E0B9010C
S113078002C0660F771F9A95E2F7CB01942F982B3E
S113079097BB98B38095892388BB089544B321E01F
S11307A030E0B90102C0660F771F9A95E2F7CB01DA
S11307B0942F982B94BB95B38095892385BB08957A
S11307C041B321E030E0B90102C0660F771F9A956A
S11307D0E2F7CB01942F982B91BB92B38095892398
S11307E082BB08958130C1F028F0823039F1833022
S11307F0B9F108954AB321E030E0B90102C0660FAF
S1130800771F9A95E2F7CB018095942F98239ABB92
S11308109BB389238BBB089547B321E030E0B90132
S113082002C0660F771F9A95E2F7CB018095942F4B
S1130830982397BB98B3892388BB089544B321E0D8
S113084030E0B90102C0660F771F9A95E2F7CB0139
S11308508095942F982394BB95B3892385BB0895E1
S113086041B321E030E0B90102C0660F771F9A95C9
S1130870E2F7CB018095942F982391BB92B38923FF
S113088082BB08958130C1F028F0823039F1833081
S1130890B9F108954AB321E030E0B90102C0660F0E
S11308A0771F9A95E2F7CB01962F909594239ABBE4
S11308B09BB3892B8BBB089547B321E030E0B9018A
S11308C002C0660F771F9A95E2F7CB01962F909599
S11308D0942397BB98B3892B88BB089544B321E034
S11308E030E0B90102C0660F771F9A95E2F7CB0199
S11308F0962F9095942394BB95B3892B85BB08952B
S113090041B321E030E0B90102C0660F771F9A9528
S1130910E2F7CB01962F9095942391BB92B3892B48
S113092082BB0895CF93C0E009C0EC2FF0E0EE57EE
S1130930FF4F60818C2F0E949503CF5FC032A8F3D4
S1130940CF910895282F27708695869586958130B6
S113095079F028F08230A9F08330E1F024C089B323
S113096090E002C0959587952A95E2F781700895E5
S113097086B390E002C0959587952A95E2F7817039
S1130980089583B390E002C0959587952A95E2F780
S11309908170089580B390E002C0959587952A955B
S11309A0E2F78170089580E00895982F97708695F6
S11309B0869586956130E1F5813099F028F0823092
S11309C0E9F0833041F108954BB321E030E0B901FF
S11309D002C0660F771F9A95E2F7CB01842B8BBB7D
S11309E0089548B321E030E0B90102C0660F771FD3
S11309F09A95E2F7CB01842B88BB089545B321E097
S1130A0030E0B90102C0660F771F9A95E2F7CB0177
S1130A10842B85BB089542B321E030E0B90102C0C4
S1130A20660F771F9A95E2F7CB01842B82BB08955A
S1130A308130A1F028F08230F9F0833059F1089523
S1130A404BB321E030E0B90102C0660F771F9A95DD
S1130A50E2F7CB01809584238BBB089548B321E052
S1130A6030E0B90102C0660F771F9A95E2F7CB0117
S1130A708095842388BB089545B321E030E0B90113
S1130A8002C0660F771F9A95E2F7CB018095842305
S1130A9085BB089542B321E030E0B90102C0660F7E
S1130AA0771F9A95E2F7CB018095842382BB089542
S1130AB0A1E21A2EAA1BBB1BFD010DC0AA1FBB1F5E
S1130AC0EE1FFF1FA217B307E407F50720F0A21BD0
S1130AD0B30BE40BF50B661F771F881F991F1A943D
S1130AE069F760957095809590959B01AC01BD0167
S10B0AF0CF010895F894FFCF33
S1130AF801010101010404040404040404506C61A8
S1130B08796572313A302020506C61796572323AD5
S1130B183000010000000000000100000000000097
S1130B2800000000000000000000000002020002B3
S1050B380202B3
S9030000FC
