:100000000C942A000C9434000C9434000C943400AA
:100010000C9434000C9434000C9434000C94340090
:100020000C9434000C9434000C9434000C94340080
:100030000C9434000C9434000C9434000C94340070
:100040000C9434000C9434000C9434000C94340060
:100050000C94340011241FBECFE5D8E0DEBFCDBF25
:100060000E9436000C9463000C9400008FEF8ABB52
:1000700080ED0E94400081E00E9442008BBBFBCFDC
:1000800082B90895CF93DF931F92CDB7DEB719825F
:1000900084EC86BF06B607FEFDCF02C081B189831E
:1000A00081B18036D9F784EC86BF06B607FEFDCF56
:1000B00002C081B1898381B18038D9F783B10F90B3
:0A00C000DF91CF910895F894FFCF6F
:00000001FF
