:100000000C942A000C94BB040C94E4040C940D058D
:100010000C9447000C9447000C9447000C94470044
:100020000C9447000C9447000C9447000C94470034
:100030000C9447000C9468050C9447000C949105AF
:100040000C9447000C9447000C9447000C94470014
:100050000C94470011241FBECFE5D8E0DEBFCDBF12
:1000600010E0A0E6B0E0E0ECF4E102C005900D92F3
:10007000A23DB107D9F721E0A2EDB0E001C01D9289
:10008000A337B207E1F70E9401020C945E0A0C94B8
:100090000000CF93C82F60E081E00E9426046C2FFF
:1000A000661F6627661F87E00E942604C6FB662738
:1000B00060F986E00E942604C5FB662760F985E0AA
:1000C0000E942604C4FB662760F984E00E9426048F
:1000D00061E083E00E9426048FE99FE00197F1F739
:1000E00000C0000060E083E00E9426048FE99FE0EA
:1000F0000197F1F700C00000C3FB662760F987E0B5
:100100000E942604C2FB662760F986E00E9426044E
:10011000C1FB662760F985E00E9426046C2F6170A0
:1001200084E00E94260461E083E00E9426048FE9B7
:100130009FE00197F1F700C0000060E083E00E94BB
:1001400026048FE99FE00197F1F700C00000CF91EE
:100150000895CF93C82F61E081E00E9426046C2FA0
:10016000661F6627661F87E00E942604C6FB662777
:1001700060F986E00E942604C5FB662760F985E0E9
:100180000E942604C4FB662760F984E00E942604CE
:1001900061E083E00E9426048FE99FE00197F1F778
:1001A00000C0000060E083E00E9426048FE99FE029
:1001B0000197F1F700C00000C3FB662760F987E0F4
:1001C0000E942604C2FB662760F986E00E9426048E
:1001D000C1FB662760F985E00E9426046C2F6170E0
:1001E00084E00E94260461E083E00E9426048FE9F7
:1001F0009FE00197F1F700C0000060E083E00E94FB
:1002000026048FE99FE00197F1F700C00000CF912D
:1002100008952FEF80E792E0215080409040E1F771
:1002200000C0000082E00E94490088E20E9449006C
:100230008CE00E94490081E00E9449008FE99FE024
:100240000197F1F700C0000086E00E944900089580
:100250000E94A90008950F931F93CF938C01C0E0D3
:1002600003C00E942801CF5FF801EC0FF11D8081CF
:100270008111F7CFCF911F910F910895811105C082
:10028000862F80680E9449000895813021F480EC17
:10029000860F0E944900089581E00E9449008FE97D
:1002A0009FE00197F1F700C0000008950F931F939E
:1002B000CF93DF93CDB7DEB72B970FB6F894DEBFA1
:1002C0000FBECDBF9F938F937F936F9388E790E08E
:1002D0009F938F938E010F5F1F4F1F930F930E9469
:1002E0007107C8010E942B010FB6F894DEBF0FBE44
:1002F000CDBF2B960FB6F894DEBF0FBECDBFDF91FA
:10030000CF911F910F9108950F931F93CF93DF9378
:10031000CDB7DEB72A970FB6F894DEBF0FBECDBFBC
:100320009F938F938EE790E09F938F938E010F5F43
:100330001F4F1F930F930E947107C8010E942B014A
:100340000F900F900F900F900F900F902A960FB66E
:10035000F894DEBF0FBECDBFDF91CF911F910F91FB
:1003600008958F929F92AF92BF92CF92DF92EF92B9
:10037000FF928090700090907100A0907200B090F9
:100380007300C0906000D0906100E0906200F09037
:100390006300A50194012350310941095109C701A6
:1003A000B6010E940606680D791D8A1D9B1D60938B
:1003B000700070937100809372009093730022E03C
:1003C000C20ED11CE11CF11CC0926000D0926100F1
:1003D000E0926200F0926300FF90EF90DF90CF9088
:1003E000BF90AF909F908F90089581EE90E00E9413
:1003F000CC05883029F48091D2008F5F8093D200A1
:100400000895CF93DF9300D0CDB7DEB70E941604D6
:100410000E94090178940E9436050E945B058AEBD0
:1004200095E00E945F0500E010E00E94F501E8C041
:1004300040E150E0BE016F5F7F4F81EE90E00E948F
:1004400052066C01990FEE08FF0840E150E0BE0132
:100450006F5F7F4F89819A810E9452064C01990FEC
:10046000AA08BB089091D20091509093D20040917D
:100470006C0050916D0060E070E0C416D506E60691
:10048000F70631F50E944C0160E080E00E943E01D9
:100490000E94B101609370007093710080937200AC
:1004A0009093730080916A0090916B000E94840188
:1004B00081E890E00E942B016091700070917100C2
:1004C00080917200909173000E94560111E098C0D3
:1004D00040916E0050916F0060E070E0C416D50648
:1004E000E606F70609F03FC0013091F580916400FF
:1004F00090916500A0E0B0E088169906AA06BB06B8
:10050000E1F40E944C0160E080E00E943E01809195
:100510006E0090916F000E94840181E890E00E943B
:100520002B0180916400909165000E94840188B342
:10053000816088BB00E010E063C00E944C0160E075
:1005400080E00E943E0184E890E00E942B0158C0A8
:100550000E944C0160E080E00E943E018BE890E048
:100560000E942B014DC08091680090916900A0E02D
:10057000B0E0C816D906EA06FB0609F041C0113002
:10058000A1F54091700050917100609172007091DE
:1005900073008091740090917500A0917600B091E5
:1005A000770084279527A627B72788169906AA06D5
:1005B000BB0679F40E944C0160E080E00E943E019D
:1005C00080916600909167000E94840101E010E034
:1005D00017C00E944C0160E080E00E943E0184E868
:1005E00090E00E942B0110E00BC00E944C0160E0E3
:1005F00080E00E943E0184E890E00E942B0110E020
:100600008091D200811114CF10CF982F9695969596
:1006100096958770613009F459C020F0623009F472
:10062000A9C0FCC09130C9F028F0923049F1933054
:10063000D1F1F6C04AB321E030E0B90102C0660F43
:10064000771F8A95E2F7CB01942F982B9ABB9BB327
:10065000809589238BBB80E0089547B321E030E08B
:10066000B90102C0660F771F8A95E2F7CB01942F7C
:10067000982B97BB98B38095892388BB80E0089519
:1006800044B321E030E0B90102C0660F771F8A95BC
:10069000E2F7CB01942F982B94BB95B380958923D7
:1006A00085BB80E0089541B321E030E0B90102C08C
:1006B000660F771F8A95E2F7CB01942F982B91BB99
:1006C00092B38095892382BB80E008959130C9F070
:1006D00028F0923049F19330D1F1A4C04AB321E01F
:1006E00030E0B90102C0660F771F8A95E2F7CB01AF
:1006F0008095942F98239ABB9BB389238BBB80E072
:10070000089547B321E030E0B90102C0660F771FBA
:100710008A95E2F7CB018095942F982397BB98B3E5
:10072000892388BB80E0089544B321E030E0B9011B
:1007300002C0660F771F8A95E2F7CB018095942F50
:10074000982394BB95B3892385BB80E0089541B37A
:1007500021E030E0B90102C0660F771F8A95E2F709
:10076000CB018095942F982391BB92B3892382BBB0
:1007700080E008959130C9F028F0923049F193302B
:10078000D1F152C04AB321E030E0B90102C0660F96
:10079000771F8A95E2F7CB01962F909594239ABB09
:1007A0009BB3892B8BBB80E0089547B321E030E0F9
:1007B000B90102C0660F771F8A95E2F7CB01962F29
:1007C0009095942397BB98B3892B88BB80E00895BC
:1007D00044B321E030E0B90102C0660F771F8A956B
:1007E000E2F7CB01962F9095942394BB95B3892B78
:1007F00085BB80E0089541B321E030E0B90102C03B
:10080000660F771F8A95E2F7CB01962F9095942378
:1008100091BB92B3892B82BB80E0089581E008955B
:1008200081E0089581E0089581E00895CF93C0E0CC
:1008300009C0EC2FF0E0E656FF4F60818C2F0E943C
:100840000503CF5FC032A8F3CF910895982F9695F6
:10085000969596958770662309F443C0613009F038
:1008600084C09130A1F028F09230F9F0933059F122
:100870007EC04BB321E030E0B90102C0660F771FA4
:100880008A95E2F7CB01842B8BBB80E0089548B3B7
:1008900021E030E0B90102C0660F771F8A95E2F7C8
:1008A000CB01842B88BB80E0089545B321E030E084
:1008B000B90102C0660F771F8A95E2F7CB01842B3E
:1008C00085BB80E0089542B321E030E0B90102C069
:1008D000660F771F8A95E2F7CB01842B82BB80E0FD
:1008E00008959130A9F028F0923009F1933071F118
:1008F00040C04BB321E030E0B90102C0660F771F62
:100900008A95E2F7CB01809584238BBB80E0089524
:1009100048B321E030E0B90102C0660F771F8A9525
:10092000E2F7CB018095842388BB80E0089545B32E
:1009300021E030E0B90102C0660F771F8A95E2F727
:10094000CB018095842385BB80E0089542B321E0EC
:1009500030E0B90102C0660F771F8A95E2F7CB013C
:100960008095842382BB80E0089583E0089581E030
:10097000089581E008951F920F920FB60F921124EF
:100980002F933F934F935F936F937F938F939F9397
:10099000AF93BF93EF93FF93E091D700F091D8000E
:1009A000309709F00995FF91EF91BF91AF919F9119
:1009B0008F917F916F915F914F913F912F910F9008
:1009C0000FBE0F901F9018951F920F920FB60F92A7
:1009D00011242F933F934F935F936F937F938F9344
:1009E0009F93AF93BF93EF93FF93E091D500F09166
:1009F000D600309709F00995FF91EF91BF91AF9123
:100A00009F918F917F916F915F914F913F912F9126
:100A10000F900FBE0F901F9018951F920F920FB658
:100A20000F9211242F933F934F935F936F937F9374
:100A30008F939F93AF93BF93EF93FF93E091D30076
:100A4000F091D400309709F00995FF91EF91BF9193
:100A5000AF919F918F917F916F915F914F913F9156
:100A60002F910F900FBE0F901F90189510BC83E32D
:100A700089B98091BA00813041F018F0823049F094
:100A80000AC08AB188608AB906C08AB180618AB911
:100A900002C088E18AB980B5846080BD80B582607B
:100AA00080BD80B58F7D80BD80B58F7E80BD80B5D7
:100AB000877F80BD08958AB180688AB90895909330
:100AC000DF008093DE0008952CB1FC01208308959F
:100AD0001F920F920FB60F9211242F933F934F93B3
:100AE0005F936F937F938F939F93AF93BF93EF9396
:100AF000FF93E091DE00F091DF00309709F0099557
:100B0000FF91EF91BF91AF919F918F917F916F91E5
:100B10005F914F913F912F910F900FBE0F901F90BB
:100B200018951F920F920FB60F9211242F933F9397
:100B30004F935F936F937F938F939F93AF93BF93E5
:100B4000EF93FF93E091DC00F091DD00309709F026
:100B50000995FF91EF91BF91AF919F918F917F91F7
:100B60006F915F914F913F912F910F900FBE0F901A
:100B70001F9018958091DB0090E0875A9E4F0E944D
:100B800064058091DB008F5F8093DB008091E00043
:100B90008F5F8093E00008959C018091E00088239E
:100BA00099F19091DA00492F50E0FA01E75AFE4F8F
:100BB00080818D3091F48091D900F901E80FF11D09
:100BC00010821092D9009F5F9093DA008091E0002C
:100BD00081508093E00088E008958091D900F90168
:100BE000E80FF11DDA01A75ABE4F4C9140838F5F89
:100BF0008093D9009F5F9093DA008091E00081504C
:100C00008093E00089E0089580E00895DB018F93F0
:100C10009F930E942506BF91AF91A29F800D911DC9
:100C2000A39F900DB29F900D11240895A29FB00133
:100C3000B39FC001A39F700D811D1124911DB29F10
:100C4000700D811D1124911D08950E941606A59F07
:100C5000900DB49F900DA49F800D911D11240895B7
:100C6000A1E21A2EAA1BBB1BFD010DC0AA1FBB1FB0
:100C7000EE1FFF1FA217B307E407F50720F0A21B22
:100C8000B30BE40BF50B661F771F881F991F1A948F
:100C900069F760957095809590959B01AC01BD01B9
:100CA000CF010895A0E0B0E0E8E5F6E00C94280A52
:100CB0005C016B017A016115710519F0FB019183EB
:100CC0008083E114F10429F0C7010297839708F0AB
:100CD000E5C0E5012196F5011081812F90E00E9489
:100CE0006807892B11F05E01F4CF1D3229F421969B
:100CF000F501118101E007C01B3221F4E5012296C4
:100D0000F501118100E0E114F10409F1F0E1EF16C1
:100D1000F10429F43FC010E3E114F10421F128E0CB
:100D2000E216F10401F154F4E2E0EE16F10421F5CB
:100D3000812C912CA12CB0E4BB2E3EC0FAE0EF1622
:100D4000F10439F020E1E216F104B1F430C01033BF
:100D500019F1FAE0EF2EF12CACEC8A2E982CA82C8D
:100D6000ACE0BA2E29C078E0E72EF12C812C912C32
:100D7000A12CE0E1BE2E20C060E070E080E090E8B1
:100D800097010F2C000C440B550B0E9430064901B3
:100D90005A0112C0103359F488818F7D883509F0CB
:100DA000BACF19812296026080E1E82EF12C812CC5
:100DB000912CA12C68E0B62E40E060E070E0CB0101
:100DC00027010F2C000C66087708FE0150ED352E28
:100DD000310E29E0231570F42FEB210F2A3118F47E
:100DE00039EC332E06C02FE9210F2A3118F529EAF4
:100DF000322E310E232D30E02E153F05DCF447FD59
:100E000016C086169706A806B90670F0A3019201CF
:100E10000E940606630D711D811D911D61307105D3
:100E2000810520E8920710F04FEF01C041E02196C4
:100E30001081CBCF202F2170C114D10471F0442335
:100E400029F02197F601D183C08307C001FF19C0A3
:100E50002297F601D183C08314C047FF12C022231A
:100E600029F060E070E080E090E804C06FEF7FEF71
:100E70008FEF9FE722E230E03093720120937101FF
:100E800009C0222381F090958095709561957F4FE0
:100E90008F4F9F4F462F372F282F12C040E030E052
:100EA00020E090E00DC097FFF5CF82E290E09093B4
:100EB0007201809371016FEF7FEF8FEF9FE7EACFB1
:100EC000642F732F822FCDB7DEB7E1E10C94440A73
:100ED00091110C947409803219F089508550C8F72B
:100EE0000895AEE0B0E0E7E7F7E00C94350A0D892D
:100EF0001E8986E08C831A8309838FEF9FE79E8388
:100F00008D83AE01475E5F4F6F89788DCE0101966C
:100F10000E949307EF81F885E00FF11F10822E9653
:100F2000E4E00C94510AABE0B0E0E9E9F7E00C949E
:100F3000270A6C017B018A01FC01178216828381DA
:100F400081FFCCC1CE0101963C01F6019381F701EE
:100F500093FD859193FF81917F01882309F4BAC1A4
:100F6000853239F493FD859193FF81917F0185321C
:100F700029F4B60190E00E948D09E7CF912C212C35
:100F8000312CFFE1F315D8F08B3279F038F4803250
:100F900079F08332A1F4232D20611DC08D3261F0E0
:100FA000803369F4232D216016C0832D8260382E92
:100FB000E32DE4603E2E2AC0F32DF8601DC037FCFF
:100FC0002DC020ED280F2A3040F08E32B9F436FCC7
:100FD00081C1232D2064322E19C036FE06C08AE05E
:100FE000989E200D1124922E11C0EAE02E9E200D15
:100FF0001124222EF32DF0623F2E08C08C3621F4EE
:10100000832D8068382E02C0883641F4F70193FDA5
:10101000859193FF81917F018111B3CF982F9F7D9F
:101020009554933028F40C5F1F4F9FE399830DC0B4
:10103000833631F0833771F0833509F059C021C010
:10104000F801808189830E5F1F4F88248394912C3F
:10105000530113C02801F2E04F0E511CF801A0808B
:10106000B18036FE03C0692D70E002C06FEF7FEFE4
:10107000C5010E9482094C018201F32DFF773F2EAA
:1010800016C0280122E0420E511CF801A080B18058
:1010900036FE03C0692D70E002C06FEF7FEFC5011F
:1010A0000E9477094C01F32DF0683F2E820133FC3A
:1010B0001BC0822D90E088169906B0F4B60180E23C
:1010C00090E00E948D092A94F4CFF50137FC8591B8
:1010D00037FE81915F01B60190E00E948D092110D9
:1010E0002A9421E0821A91088114910471F7E8C0D2
:1010F000843611F0893641F5F80137FE07C060816A
:101100007181828193810C5F1F4F08C06081718162
:10111000072E000C880B990B0E5F1F4FF32DFF76E7
:101120003F2E97FF09C090958095709561957F4FF0
:101130008F4F9F4FF0683F2E2AE030E0A3010E94BE
:10114000C909882E861845C0853731F4232D2F7E96
:10115000B22E2AE030E025C0932D997FB92E8F362C
:10116000C1F018F4883579F0B5C0803719F08837A8
:1011700021F0B0C0E92FE061BE2EB4FE0DC0FB2D02
:10118000F460BF2E09C034FE0AC0292F2660B22E9B
:1011900006C028E030E005C020E130E002C020E1D8
:1011A00032E0F801B7FE07C06081718182819381CE
:1011B0000C5F1F4F06C06081718180E090E00E5F80
:1011C0001F4FA3010E94C909882E8618FB2DFF77A7
:1011D0003F2E36FE0DC0232D2E7FA22E891458F4EB
:1011E00034FE0BC032FC09C0832D8E7EA82E05C0B4
:1011F000B82CA32C03C0B82C01C0B92CA4FE0FC07E
:10120000FE01E80DF11D8081803321F49A2D997E35
:10121000A92E09C0A2FE06C0B394B39404C08A2DBF
:10122000867809F0B394A3FC11C0A0FE06C0B214E6
:1012300088F4280C922C9B180EC0B21460F4B601EE
:1012400080E290E00E948D09B394F7CFB21418F4B5
:101250002B1802C0982C212CA4FE10C0B60180E3EC
:1012600090E00E948D09A2FE17C0A1FC03C088E790
:1012700090E002C088E590E0B6010CC08A2D867827
:1012800059F0A1FE02C08BE201C080E2A7FC8DE212
:10129000B60190E00E948D09891438F4B60180E30C
:1012A00090E00E948D099A94F7CF8A94F301E80D9B
:1012B000F11D8081B60190E00E948D098110F5CF6B
:1012C000222009F442CEB60180E290E00E948D090E
:1012D0002A94F6CFF6018681978102C08FEF9FEFA7
:1012E0002B96E2E10C94430A992788270895FC0184
:1012F0000590615070400110D8F7809590958E0F41
:101300009F1F0895FC016150704001900110D8F7B3
:10131000809590958E0F9F1F08950F931F93CF93E5
:10132000DF93FB01238121FD03C08FEF9FEF2CC0D2
:1013300022FF16C046815781248135814217530709
:1013400044F4A081B1819D012F5F3F4F3183208301
:101350008C93268137812F5F3F4F3783268314C0BC
:101360008B01EC01FB010084F185E02D0995892BAF
:10137000E1F6D80116968D919C91179701961796D4
:101380009C938E931697CE01DF91CF911F910F9171
:101390000895FA01AA27283051F1203181F1E8940B
:1013A0006F936E7F6E5F7F4F8F4F9F4FAF4FB1E058
:1013B0003ED0B4E03CD0670F781F891F9A1FA11D53
:1013C000680F791F8A1F911DA11D6A0F711D811D54
:1013D000911DA11D20D009F468943F912AE0269F19
:1013E00011243019305D3193DEF6CF010895462F78
:1013F0004770405D4193B3E00FD0C9F7F6CF462F59
:101400004F70405D4A3318F0495D31FD40524193C1
:1014100002D0A9F7EACFB4E0A6959795879577957E
:101420006795BA95C9F700976105710508959B0105
:10143000AC010A2E06945795479537952795BA958E
:10144000C9F7620F731F841F951FA01D08952F9267
:101450003F924F925F926F927F928F929F92AF9244
:10146000BF92CF92DF92EF92FF920F931F93CF9391
:10147000DF93CDB7DEB7CA1BDB0B0FB6F894DEBF28
:101480000FBECDBF09942A88398848885F846E844E
:101490007D848C849B84AA84B984C884DF80EE8098
:1014A000FD800C811B81AA81B981CE0FD11D0FB6A1
:1014B000F894DEBF0FBECDBFED010895F894FFCFC5
:1014C0000100000000AA026702270167012701311D
:1014D00078563412353535272530386C5800255864
:1014E000002020003746323733350041434345530F
:1014F000532044454E4945442000000000000000B0
:1015000000000000010000000000000000000000DA
:1015100000000202020000000102020001020000BD
:1015200003000000000000000000000000000000B8
:021530000000B9
:00000001FF
