S00C000063616C632E7372656385
S11300000C942A000C9447000C9447000C9447006D
S11300100C9447000C9447000C9447000C94470040
S11300200C9447000C9447000C9447000C94470030
S11300300C9447000C9447000C9447000C94470020
S11300400C9447000C9447000C9447000C94470010
S11300500C94470011241FBECFE5D8E0DEBFCDBF0E
S113006010E0A0E6B0E0ECE4FCE002C005900D92E4
S1130070AE37B107D9F721E0AEE7B0E001C01D9279
S1130080A032B207E1F70E94AB040C9424060C944E
S113009000000E94B9040E949F032FEF89E698E1B3
S11300A0215080409040E1F700C000000E9482028D
S11300B0089512C0282F30E0F9013296EE0FFF1F89
S11300C0E058FF4F40815181220F331FF901E0585E
S11300D0FF4F518340838F5F90917F00981750F7B3
S11300E0925090937F00089520E04AC0822F90E0C0
S11300F0FC01EE0FFF1FE058FF4F408151814A324F
S1130100510501F5AC0141505109FC013196EE0F46
S1130110FF1FE058FF4F60817181FA01EE0FFF1F4E
S1130120E058FF4F40815181469FC001479F900D89
S1130130569F900D112491838083822F0E94590031
S113014020E01DC04F325105D1F4AC01415051099A
S1130150FC013196EE0FFF1FE058FF4F6081718163
S1130160FA01EE0FFF1FE058FF4F808191810E943A
S1130170BB0571836083822F0E94590020E02F5FAA
S113018080917F00821708F0B1CF80E043C0282F10
S113019030E0F901EE0FFF1FE058FF4F408151811D
S11301A04B325105D1F4A90141505109F90131965D
S11301B0EE0FFF1FE058FF4F20813181FA01EE0F4F
S11301C0FF1FE058FF4F40815181240F351F3183B9
S11301D020830E94590080E01CC04D325105C9F4AF
S11301E0A90141505109F9013196EE0FFF1FE05862
S11301F0FF4F60817181FA01EE0FFF1FE058FF4F3E
S113020020813181261B370B318320830E945900C2
S113021080E08F5F90917F00981708F0B8CF089521
S1130220CF92DF92EF92FF920F931F93CF9360913F
S11302306000809161000E947F04809162000E94AE
S1130240DF032FEF8EE994E2215080409040E1F7E4
S113025000C0000081E00E940C03C1E0C093610073
S1130260C093600061E081E00E947F0483E790E036
S11302700E9472046AE081E00E947F04E0917F00A2
S1130280F0E0EE0FFF1FE058FF4F60817181072EF1
S1130290000C880B990B0F2EF0E4CF2EF2E4DF2E26
S11302A0FFE0EF2EF12CF02DA70196010E94CF055F
S11302B080E3820F0E94DF03E0917F00F0E0EE0F05
S11302C0FF1FE058FF4F60817181072E000C880BDF
S11302D0990BA70196010E94CF050F2EF0EACF2EAD
S11302E0F6E8DF2EEE24E394F12CF02DA70196011D
S11302F00E94CF0580E3820F0E94DF03E0917F001C
S1130300F0E0EE0FFF1FE058FF4F60817181072E70
S1130310000C880B990BA70196010E94CF0520E1E0
S113032037E240E050E00E94CF0580E3820F0E9454
S1130330DF03E0917F00F0E0EE0FFF1FE058FF4F76
S11303408081918160E177E20E94BB0508EE13E0B1
S1130350B8010E94BB0580E3860F0E94DF03E09191
S11303607F00F0E0EE0FFF1FE058FF4F8081918186
S1130370B8010E94BB0504E610E0B8010E94BB0569
S113038080E3860F0E94DF03E0917F00F0E0EE0F30
S1130390FF1FE058FF4F80819181B8010E94BB0587
S11303A00AE010E0B8010E94BB0580E3860F0E94BA
S11303B0DF03E0917F00F0E0EE0FFF1FE058FF4FF6
S11303C080819181B8010E94BB05805D0E94DF039A
S11303D0C0937E00CF911F910F91FF90EF90DF901B
S11303E0CF9008958053E0917F00F0E0EE0FFF1F5F
S11303F0E058FF4F20813181A901440F551F220F7E
S1130400331F220F331F220F331F240F351F280FD2
S1130410311D3183208308958A3249F08F3239F0B7
S11304208B3229F08D3219F00E94F2010895209147
S11304307F002F5FE22FF0E0EE0FFF1FE058FF4F29
S113044090E0918380832F5F20937F0008950E9422
S11304509302809362008D3309F04CC00E947400B3
S11304600E94100147C080917E00813099F40E945F
S11304700C0310927E0010927F0080E009C0E82FE8
S1130480F0E0EE0FFF1FE058FF4F118210828F5FE4
S11304908035A8F3809162000E940C026091600094
S11304A0809161000E947F04809162000E94DF03BA
S11304B0809160008F5F853129F4909161009F5F86
S11304C09093610097E8899F212D1124982F921B06
S11304D09695920F92959F7025E1929F8019112411
S11304E080936000809161008370809361008FEF3E
S11304F080936200809162008F3F19F08D3309F080
S1130500B2CF089567E083E00E94870566E083E048
S11305100E94870565E083E00E94870563E083E02D
S11305200E94870508950F931F93CF93DF9310E0E4
S1130530D1E00FEF68C041E065E082E00E94C004B2
S113054041E064E082E00E94C00441E063E082E0B4
S11305500E94C00441E062E082E00E94C0041130C5
S113056061F028F0123081F01330A1F00BC040E0AC
S113057065E082E00E94C00405C040E064E082E0DF
S11305800E94C004C0E03AC040E063E082E00E9400
S1130590C004F8CF40E062E082E00E94C004F2CFE1
S11305A0C13061F028F0C23079F0C33099F017C03F
S11305B067E083E00E942D05D82F11C066E083E038
S11305C00E942D05D82F0BC065E083E00E942D0505
S11305D0D82F05C063E083E00E942D05D82FD111E8
S11305E00CC0E12FF0E0EE0FFF1FEE0FFF1FED59DF
S11305F0FF4FEC0FF11D008103C0CF5FC43080F2C8
S1130600DD2321F01F5F143008F495CF802FDF9194
S1130610CF911F910F910895CF93C82F40E063E0CD
S113062080E00E94C0044C2F407150E055954795DE
S113063055954795559547955595479560E081E0C3
S11306400E94C0044C2F407250E055954795559533
S1130650479555954795559547955595479561E027
S113066081E00E94C0044C2F407450E0042E452FBA
S1130670000C441F550B000C441F551F62E081E021
S11306800E94C0044C2F441F4427441F64E081E0AF
S11306900E94C00441E062E080E00E94C0048FE94F
S11306A09FE00197F1F700C0000040E062E080E0C5
S11306B00E94C0048FE99FE00197F1F700C0000099
S11306C04C2F417060E081E00E94C0044C2F4270C6
S11306D050E05595479561E081E00E94C0044C2F9D
S11306E0447050E0559547955595479562E081E0F3
S11306F00E94C004C8704C2F50E0559547955595FD
S113070047955595479564E081E00E94C00441E017
S113071062E080E00E94C0048FE99FE00197F1F756
S113072000C0000040E062E080E00E94C0048FE965
S11307309FE00197F1F700C00000CF9108952FEFDB
S113074089EF90E0215080409040E1F700C0000024
S113075083E30E940C038FEC97E00197F1F700C04C
S1130760000082E30E940C038FEC97E00197F1F7FD
S113077000C0000088E20E940C038FEC97E0019710
S1130780F1F700C000008CE00E940C038FEC97E0AE
S11307900197F1F700C0000081E00E940C038FEC88
S11307A097E00197F1F700C0000082E00E940C037B
S11307B08FEC97E00197F1F700C000000895CF9304
S11307C0C82F41E063E080E00E94C0044C2F4071D8
S11307D050E05595479555954795559547955595A9
S11307E0479560E081E00E94C0044C2F407250E0C5
S11307F055954795559547955595479555954795DD
S11308005595479561E081E00E94C0044C2F4074E7
S113081050E0042E452F000C441F550B000C441FC0
S1130820551F62E081E00E94C0044C2F441F4427FE
S1130830441F64E081E00E94C00441E062E080E083
S11308400E94C0048FE99FE00197F1F700C0000007
S113085040E062E080E00E94C0048FE99FE00197DD
S1130860F1F700C000004C2F417060E081E00E946D
S1130870C0044C2F427050E05595479561E081E0EB
S11308800E94C0044C2F447050E0559547955595EF
S1130890479562E081E00E94C004C8704C2F50E08C
S11308A055954795559547955595479564E081E04D
S11308B00E94C00441E062E080E00E94C0048FE92D
S11308C09FE00197F1F700C0000040E062E080E0A3
S11308D00E94C0048FE99FE00197F1F700C0000077
S11308E0CF910895CF93DF93EC0103C00E94DF03FF
S11308F0219688818111FACFDF91CF9108959FEFDE
S1130900980F9430C0F46531C0F46623C1F081308F
S113091019F48FE7860F16C0823019F48FEB860F17
S113092011C0833019F483E9860F0CC0843049F474
S113093083ED860F07C080E805C080E803C080E827
S113094001C080E80E940C038FEC97E00197F1F757
S113095000C0000008950E9449000E9427022FE76A
S11309608AE196E0215080409040E1F700C0000009
S1130970F4CF8FEF8ABB87BB84BB87E181BB08952B
S1130980813001F130F08230B1F1833009F44CC090
S11309900895413059F42BB381E090E002C0880FF0
S11309A0991F6A95E2F7822B8BBB08952BB381E0E4
S11309B090E002C0880F991F6A95E2F78095822320
S11309C08BBB0895413059F42BB381E090E002C011
S11309D0880F991F6A95E2F7822B8BBB08952BB37E
S11309E081E090E002C0880F991F6A95E2F7809534
S11309F082238BBB0895413059F42BB381E090E0FE
S1130A0002C0880F991F6A95E2F7822B8BBB089569
S1130A102BB381E090E002C0880F991F6A95E2F73A
S1130A20809582238BBB0895413059F42BB381E028
S1130A3090E002C0880F991F6A95E2F7822B8BBB66
S1130A4008952BB381E090E002C0880F991F6A9546
S1130A50E2F7809582238BBB08958130D1F028F092
S1130A60823059F18330E9F150C049B381E090E01C
S1130A709C01062E02C0220F331F0A94E2F7842F32
S1130A8090E08223932302C0959587956A95E2F7B7
S1130A90089546B381E090E09C01062E02C0220F27
S1130AA0331F0A94E2F7842F90E08223932302C039
S1130AB0959587956A95E2F7089543B381E090E0B0
S1130AC09C01062E02C0220F331F0A94E2F7842FE2
S1130AD090E08223932302C0959587956A95E2F767
S1130AE0089540B381E090E09C01062E02C0220FDD
S1130AF0331F0A94E2F7842F90E08223932302C0E9
S1130B00959587956A95E2F7089580E00895813078
S1130B1089F028F08230C9F0833011F1089529B3A7
S1130B2081E090E002C0880F991F6A95E2F7822B5A
S1130B3089BB089526B381E090E002C0880F991F15
S1130B406A95E2F7822B86BB089523B381E090E097
S1130B5002C0880F991F6A95E2F7822B83BB089520
S1130B6020B381E090E002C0880F991F6A95E2F7F4
S1130B70822B80BB089597FB072E16F4009407D0B0
S1130B8077FD09D00E94EE0507FC05D03EF4909550
S1130B9081959F4F0895709561957F4F0895052E17
S1130BA097FB1EF400940E94E60557FD07D00E94AF
S1130BB0020607FC03D04EF40C94E60550954095CC
S1130BC0309521953F4F4F4F5F4F089590958095F5
S1130BD0709561957F4F8F4F9F4F0895AA1BBB1B44
S1130BE051E107C0AA1FBB1FA617B70710F0A61B29
S1130BF0B70B881F991F5A95A9F780959095BC014A
S1130C00CD010895A1E21A2EAA1BBB1BFD010DC044
S1130C10AA1FBB1FEE1FFF1FA217B307E407F507A8
S1130C2020F0A21BB30BE40BF50B661F771F881F84
S1130C30991F1A9469F760957095809590959B011A
S10F0C40AC01BD01CF010895F894FFCF72
S1130C4C0101FF3738392F3435362A3132332D41EF
S1110C5C303D2B526573756C74203D200000F2
S9030000FC
