:100000000C942A000C943F000C943F000C943F0089
:100010000C943F000C943F000C943F000C943F0064
:100020000C943F000C943F000C943F000C943F0054
:100030000C943F000C943F000C943F000C943F0044
:100040000C943F000C943F000C943F000C943F0034
:100050000C943F0011241FBECFE5D8E0DEBFCDBF1A
:1000600010E0A0E6B0E0E4E9F6E002C005900D92F1
:10007000A239B107D9F70E9478010C9448030C9477
:100080000000EF92FF920F931F93CF93DF930F2EF9
:10009000F4E5EF2EF02D10E03EC002E1010F60E02C
:1000A000802F0E94C502C0E0F12C2EC0C13049F162
:1000B000DBE1DC0F8D2F0E949202811124C0812F81
:1000C00090E02C2F30E02F193109880F991F880FED
:1000D000991F805A9F4FFC01E20FF31FE0808FEDC4
:1000E0009EE20197F1F700C000008D2F0E9492025E
:1000F0008823D9F38FED9EE20197F1F700C000004D
:1001000002C0FF24F394CF5FC53080F261E0802FFE
:100110000E94C5021F5F143008F4BFCF8E2DDF91FF
:10012000CF911F910F91FF90EF900895CF93C82F1B
:1001300060E083E00E94C5026C2F661F6627661F81
:100140008CE00E94C502C6FB662760F98AE00E9427
:10015000C502C5FB662760F989E00E94C502C4FBA1
:10016000662760F988E00E94C50261E082E00E9493
:10017000C5028FE99FE00197F1F700C0000060E041
:1001800082E00E94C5028FE99FE00197F1F700C06D
:100190000000C3FB662760F98CE00E94C502C2FB29
:1001A000662760F98AE00E94C502C1FB662760F9F4
:1001B00089E00E94C5026C2F617088E00E94C50230
:1001C00061E082E00E94C5028FE99FE00197F1F7AC
:1001D00000C0000060E082E00E94C5028FE99FE05D
:1001E0000197F1F700C00000CF910895CF93C82F79
:1001F00061E083E00E94C5026C2F661F6627661FC0
:100200008CE00E94C502C6FB662760F98AE00E9466
:10021000C502C5FB662760F989E00E94C502C4FBE0
:10022000662760F988E00E94C50261E082E00E94D2
:10023000C5028FE99FE00197F1F700C0000060E080
:1002400082E00E94C5028FE99FE00197F1F700C0AC
:100250000000C3FB662760F98CE00E94C502C2FB68
:10026000662760F98AE00E94C502C1FB662760F933
:1002700089E00E94C5026C2F617088E00E94C5026F
:1002800061E082E00E94C5028FE99FE00197F1F7EB
:1002900000C0000060E082E00E94C5028FE99FE09C
:1002A0000197F1F700C00000CF9108952FE785EB8B
:1002B00091E0215080409040E1F700C0000082E0D2
:1002C0000E94960088E20E9496008CE00E949600B0
:1002D00081E00E9496008FE99FE00197F1F700C04E
:1002E000000086E00E94960008950E94F60008959E
:1002F0000E9482020E9482020E9456010E944100D6
:10030000809370000E947501F9CF982F97708695A1
:1003100086958695613009F455C020F0623009F465
:10032000A1C008958130C1F028F0823039F18330C6
:10033000B9F108954AB321E030E0B90102C0660F77
:10034000771F9A95E2F7CB01942F982B9ABB9BB31A
:10035000809589238BBB089547B321E030E0B90134
:1003600002C0660F771F9A95E2F7CB01942F982B66
:1003700097BB98B38095892388BB089544B321E047
:1003800030E0B90102C0660F771F9A95E2F7CB0102
:10039000942F982B94BB95B38095892385BB0895A2
:1003A00041B321E030E0B90102C0660F771F9A9592
:1003B000E2F7CB01942F982B91BB92B380958923C0
:1003C00082BB08958130C1F028F0823039F183304A
:1003D000B9F108954AB321E030E0B90102C0660FD7
:1003E000771F9A95E2F7CB018095942F98239ABBBB
:1003F0009BB389238BBB089547B321E030E0B9015B
:1004000002C0660F771F9A95E2F7CB018095942F73
:10041000982397BB98B3892388BB089544B321E000
:1004200030E0B90102C0660F771F9A95E2F7CB0161
:100430008095942F982394BB95B3892385BB089509
:1004400041B321E030E0B90102C0660F771F9A95F1
:10045000E2F7CB018095942F982391BB92B3892327
:1004600082BB08958130C1F028F0823039F18330A9
:10047000B9F108954AB321E030E0B90102C0660F36
:10048000771F9A95E2F7CB01962F909594239ABB0C
:100490009BB3892B8BBB089547B321E030E0B901B2
:1004A00002C0660F771F9A95E2F7CB01962F9095C1
:1004B000942397BB98B3892B88BB089544B321E05C
:1004C00030E0B90102C0660F771F9A95E2F7CB01C1
:1004D000962F9095942394BB95B3892B85BB089553
:1004E00041B321E030E0B90102C0660F771F9A9551
:1004F000E2F7CB01962F9095942391BB92B3892B71
:1005000082BB0895CF93C0E009C0EC2FF0E0EF5814
:10051000FF4F60818C2F0E948501CF5FC032A8F30E
:10052000CF910895282F27708695869586958130DE
:1005300079F028F08230A9F08330E1F024C089B34B
:1005400090E002C0959587952A95E2F7817008950D
:1005500086B390E002C0959587952A95E2F7817061
:10056000089583B390E002C0959587952A95E2F7A8
:100570008170089580B390E002C0959587952A9583
:10058000E2F78170089580E00895982F977086951E
:10059000869586956130E1F5813099F028F08230BA
:1005A000E9F0833041F108954BB321E030E0B90127
:1005B00002C0660F771F9A95E2F7CB01842B8BBBA5
:1005C000089548B321E030E0B90102C0660F771FFB
:1005D0009A95E2F7CB01842B88BB089545B321E0BF
:1005E00030E0B90102C0660F771F9A95E2F7CB01A0
:1005F000842B85BB089542B321E030E0B90102C0ED
:10060000660F771F9A95E2F7CB01842B82BB089582
:100610008130A1F028F08230F9F0833059F108954B
:100620004BB321E030E0B90102C0660F771F9A9505
:10063000E2F7CB01809584238BBB089548B321E07A
:1006400030E0B90102C0660F771F9A95E2F7CB013F
:100650008095842388BB089545B321E030E0B9013B
:1006600002C0660F771F9A95E2F7CB01809584232D
:1006700085BB089542B321E030E0B90102C0660FA6
:10068000771F9A95E2F7CB018095842382BB08956A
:04069000F894FFCF0C
:100694002B3D30432D3332312A3635342F39383718
:1006A400FF01000000000000010000000000000045
:1006B400000000000000000000000002020002022E
:0206C400020032
:00000001FF
