S00D000073746F72792E73726563D6
S11300000C942A000C943F000C943F000C943F0085
S11300100C943F000C943F000C943F000C943F0060
S11300200C943F000C943F000C943F000C943F0050
S11300300C943F000C943F000C943F000C943F0040
S11300400C943F000C943F000C943F000C943F0030
S11300500C943F0011241FBECFE5D8E0DEBFCDBF16
S113006011E0A0E6B0E0E6EEF8E002C005900D92E3
S1130070AE38B107D9F70E947C010C9471040C943A
S11300800000CF93C82F60E083E00E94EE036C2F42
S1130090661F6627661F8CE00E94EE03C6FB662778
S11300A060F98AE00E94EE03C5FB662760F989E0E7
S11300B00E94EE03C4FB662760F988E00E94EE0309
S11300C061E082E00E94EE038FE99FE00197F1F77F
S11300D000C0000060E082E00E94EE038FE99FE030
S11300E00197F1F700C00000C3FB662760F98CE0BC
S11300F00E94EE03C2FB662760F98AE00E94EE03C9
S1130100C1FB662760F989E00E94EE036C2F6170E1
S113011088E00E94EE0361E082E00E94EE038FE932
S11301209FE00197F1F700C0000060E082E00E94C8
S1130130EE038FE99FE00197F1F700C00000CF9133
S11301400895CF93C82F61E083E00E94EE036C2FE3
S1130150661F6627661F8CE00E94EE03C6FB6627B7
S113016060F98AE00E94EE03C5FB662760F989E026
S11301700E94EE03C4FB662760F988E00E94EE0348
S113018061E082E00E94EE038FE99FE00197F1F7BE
S113019000C0000060E082E00E94EE038FE99FE06F
S11301A00197F1F700C00000C3FB662760F98CE0FB
S11301B00E94EE03C2FB662760F98AE00E94EE0308
S11301C0C1FB662760F989E00E94EE036C2F617021
S11301D088E00E94EE0361E082E00E94EE038FE972
S11301E09FE00197F1F700C0000060E082E00E9408
S11301F0EE038FE99FE00197F1F700C00000CF9173
S113020008952FE785EB91E0215080409040E1F77D
S113021000C0000082E00E94410088E20E94410088
S11302208CE00E94410081E00E9441008FE99FE040
S11302300197F1F700C0000086E00E944100089594
S1130240813029F480E8860F0E94410008958230AD
S113025029F480EC860F0E9441000895833029F42C
S113026084E9860F0E9441000895843021F484EDCE
S1130270860F0E94410008950E94A10008950F93E3
S11302801F93CF938C01C0E003C00E94A100CF5FF5
S1130290F801EC0FF11D80818111F7CFCF911F91EF
S11302A00F9108950F931F93CF938B0190E00896BD
S11302B0880F880F880F0E944100C0E007C0F80132
S11302C0EC0FF11D80810E94A100CF5FC830B8F30C
S11302D080E80E944100CF911F910F91089581E021
S11302E00E9441008FE39FE10197F1F700C00000F5
S11302F080E80E94410008950E94DE030E940101EB
S113030060E870E081E00E94520168E770E082E0FA
S11303100E94520160E770E083E00E94520168E6A7
S113032070E084E00E94520160E670E085E00E9483
S1130330520169E081E00E94200181E00E943C01B9
S113034060E083E00E94200188E890E00E943F0181
S11303502FEF87EA91E6215080409040E1F700C0FA
S113036000000E946F0169E081E00E94200181E0A9
S11303700E943C01C0E0D0E008C06C2F82E00E94E3
S1130380200182E00E943C012196C431D105ACF3E6
S113039060E083E00E9420018BE990E00E943F012D
S11303A060E084E00E9420018FEA90E00E943F0117
S11303B02FEF87EA91E6215080409040E1F700C09A
S11303C000000E946F0160E081E00E9420018EEB3A
S11303D090E00E943F0160E082E00E94200182EDF3
S11303E090E00E943F0160E083E00E94200186EEDD
S11303F090E00E943F0168E084E00E94200184E0D4
S11304000E943C0169E084E00E94200185E00E9492
S11304103C016CE084E00E94200181E00E943C01E8
S11304202FEF87EA91E6215080409040E1F700C029
S113043000000E946F0160E083E00E94200181EFD0
S113044090E00E943F0160E084E00E94200186E089
S113045091E00E943F0169E081E00E94200181E077
S11304600E943C01C8E0D0E008C06C2F81E00E94EB
S1130470200181E00E943C012197C630D105ACF7F0
S1130480CAE0D0E008C06C2F81E00E94200181E026
S11304900E943C012196CD30D105ACF3C0E0D0E000
S11304A008C06C2F82E00E94200182E00E943C017F
S11304B02196C431D105ACF32FEF87EA91E62150A0
S11304C080409040E1F700C000000E946F0165E0A9
S11304D081E00E94200181E00E943C016AE081E009
S11304E00E94200183E00E943C016FE081E00E94B1
S11304F0200183E00E943C01C0E0D0E008C06C2FE2
S113050082E00E94200182E00E943C012196C431D5
S1130510D105ACF360E083E00E94200188E191E022
S11305200E943F0160E084E00E9420018AE291E0A1
S11305300E943F012FEF87EA91E6215080409040CE
S1130540E1F700C000000E946F0160E082E00E94B9
S113055020018CE391E00E943F0183E00E943C0172
S113056060E083E00E9420018AE491E00E943F0160
S11305702FEF87EA91E6215080409040E1F700C0D8
S113058000000E946F0169E081E00E94200181E087
S11305900E943C01C0E0D0E008C06C2F82E00E94C1
S11305A0200182E00E943C012196C431D105ACF3C4
S11305B060E083E00E94200188E591E00E943F0111
S11305C0FFCF982F9770869586958695613009F4AC
S11305D055C020F0623009F4A1C008958130C1F003
S11305E028F0823039F18330B9F108954AB321E01B
S11305F030E0B90102C0660F771F9A95E2F7CB018C
S1130600942F982B9ABB9BB3809589238BBB089519
S113061047B321E030E0B90102C0660F771F9A9515
S1130620E2F7CB01942F982B97BB98B3809589233D
S113063088BB089544B321E030E0B90102C0660FDD
S1130640771F9A95E2F7CB01942F982B94BB95B31F
S11306508095892385BB089541B321E030E0B90139
S113066002C0660F771F9A95E2F7CB01942F982B5F
S113067091BB92B38095892382BB08958130C1F0E8
S113068028F0823039F18330B9F108954AB321E07A
S113069030E0B90102C0660F771F9A95E2F7CB01EB
S11306A08095942F98239ABB9BB389238BBB089581
S11306B047B321E030E0B90102C0660F771F9A9575
S11306C0E2F7CB018095942F982397BB98B38923A5
S11306D088BB089544B321E030E0B90102C0660F3D
S11306E0771F9A95E2F7CB018095942F982394BBBA
S11306F095B3892385BB089541B321E030E0B90166
S113070002C0660F771F9A95E2F7CB018095942F6C
S1130710982391BB92B3892382BB08958130C1F0A1
S113072028F0823039F18330B9F108954AB321E0D9
S113073030E0B90102C0660F771F9A95E2F7CB014A
S1130740962F909594239ABB9BB3892B8BBB0895CA
S113075047B321E030E0B90102C0660F771F9A95D4
S1130760E2F7CB01962F9095942397BB98B3892BEE
S113077088BB089544B321E030E0B90102C0660F9C
S1130780771F9A95E2F7CB01962F9095942394BB0B
S113079095B3892B85BB089541B321E030E0B901BD
S11307A002C0660F771F9A95E2F7CB01962F9095BA
S11307B0942391BB92B3892B82BB0895CF93C0E05D
S11307C009C0EC2FF0E0E359FE4F60818C2F0E94AA
S11307D0E102CF5FC032A8F3CF910895982F9770AC
S11307E08695869586956130E1F5813099F028F0FB
S11307F08230E9F0833041F108954BB321E030E0D9
S1130800B90102C0660F771F9A95E2F7CB01842BDA
S11308108BBB089548B321E030E0B90102C0660FF4
S1130820771F9A95E2F7CB01842B88BB089545B3D3
S113083021E030E0B90102C0660F771F9A95E2F714
S1130840CB01842B85BB089542B321E030E0B9018C
S113085002C0660F771F9A95E2F7CB01842B82BB07
S113086008958130A1F028F08230F9F0833059F1F5
S113087008954BB321E030E0B90102C0660F771F41
S11308809A95E2F7CB01809584238BBB089548B3F6
S113089021E030E0B90102C0660F771F9A95E2F7B4
S11308A0CB018095842388BB089545B321E030E0D3
S11308B0B90102C0660F771F9A95E2F7CB018095C4
S11308C0842385BB089542B321E030E0B90102C01E
S11308D0660F771F9A95E2F7CB018095842382BB3C
S10908E00895F894FFCF17
S11308E61F01011F010101011F10101F101010101C
S11308F6040A1B11151B0A041F0000000000000057
S1130906040A040E15040A11456E67696E6565725C
S113091627732073746F72793A2800576169746972
S11309266E6720666F722074686520627573006551
S113093676657279206D6F726E696E672000416606
S1130946746572206D616E7920617474656D70745E
S11309567300746F2072656163682074686973201C
S1130966647265616D00434F5552534553212121ED
S113097600436C6F7365206F6E65732068656C70D9
S11309866564206D6500746F207265616368207408
S11309966869732077617900486F77657665722C8C
S11309A6492068617665203A280073616372696636
S11309B6696365642061206C6F742000496E20743D
S11309C6686520656E642C2020007468652068655F
S11309D6726F2077696E73004275742068652072A1
S11309E6656D61696E7320616C6F6E650001000050
S11309F600000000010000000000000000000000EC
S1110A060000000000000002020002020200D4
S9030000FC
