S0110000696E746572727570742E7372656326
S11300000C942A000C9478020C94A1020C94CA0259
S11300100C9447000C9447000C9447000C94470040
S11300200C9447000C9447000C9447000C94470030
S11300300C9447000C9447000C9447000C94470020
S11300400C9447000C9447000C9447000C94470010
S11300500C94470011241FBECFE5D8E0DEBFCDBF0E
S113006010E0A0E6B0E0E6E6F8E002C005900D92EC
S1130070A836B107D9F720E0A8E6B0E001C01D9288
S1130080AE36B207E1F70E94FC010C9431040C94E3
S113009000008BB384608BBB8FE39CE90197F1F77D
S11300A000C000008BB38B7F8BBB0895CF93C82F08
S11300B084FF04C088B3816088BB03C088B38E7F8B
S11300C088BBC5FF04C088B3826088BB03C088B303
S11300D08D7F88BBC6FF04C088B3846088BB03C01F
S11300E088B38B7F88BBCC2324F488B3806188BB1E
S11300F003C088B38F7E88BB8BB3877F8BBB0E9482
S113010049002FEF81EE94E0215080409040E1F7C8
S113011000C00000C0FF04C088B3816088BB03C076
S113012088B38E7F88BBC1FF04C088B3826088BB5C
S113013003C088B38D7F88BBC2FF04C088B38460CA
S113014088BB03C088B38B7F88BBC3FF04C088B35C
S1130150806188BB03C088B38F7E88BB8FEC97E037
S11301600197F1F700C000000E944900CF91089563
S1130170813039F46431F8F480E8860F0E94560027
S11301800895823039F46832B0F480EC860F0E940E
S113019056000895833039F46C3368F484E9860F8B
S11301A00E9456000895843031F4603520F484EDC3
S11301B0860F0E945600089581E00E94560008951B
S11301C08FE39CE90197F1F700C000008FEF87BB34
S11301D08AB38E608ABB8BB38B7F8BBB8FE295E730
S11301E00197F1F700C0000082E00E94560088E207
S11301F00E9456000E94DC0082E00E94560086E0C5
S11302000E94560080E80E9456008FE00E9456002B
S11302100895CF93C82F84FF04C088B3816088BB3E
S113022003C088B38E7F88BBC5FF04C088B38260D7
S113023088BB03C088B38D7F88BBC6FF04C088B366
S1130240846088BB03C088B38B7F88BBCC2324F431
S113025088B3806188BB03C088B38F7E88BB8BB3AF
S113026088608BBB0E9449002FEF81EE94E02150FF
S113027080409040E1F700C00000C0FF04C088B394
S1130280816088BB03C088B38E7F88BBC1FF04C074
S113029088B3826088BB03C088B38D7F88BBC2FFEC
S11302A004C088B3846088BB03C088B38B7F88BBD9
S11302B0C3FF04C088B3806188BB03C088B38F7E4A
S11302C088BB8BB388608BBB0E9449002FEF81EE03
S11302D094E0215080409040E1F700C00000CF91AD
S11302E008950F931F93CF93DF938C01C0E0D0E068
S11302F017C021960F5F1F4F0E940901C031D1051D
S113030021F460E082E00E94B800C032D10541F4DB
S11303100E94DC0060E082E00E94B800C0E0D0E00F
S1130320F80180818111E5CFDF91CF911F910F9169
S113033008951F93CF93DF93CDB7DEB72A970FB6F7
S1130340F894DEBF0FBECDBFAC0188BB8BB3886011
S11303508BBB4115510591F580E30E94090142C010
S11303609A01ADECBCEC0E94220496958795969573
S11303708795969587959C01220F331F880F991FA7
S1130380880F991F880F991F820F931F9A01281BAA
S1130390390BC901E1E0F0E0EC0FFD1FE10FF11DA5
S11303A0805D80839A010E942204AC015695479592
S11303B056954795569547951F5F01C010E0411526
S11303C0510571F60DC0E12FF0E0319781E090E026
S11303D08C0F9D1FE80FF91F80810E9409011150A5
S11303E01111F1CF2A960FB6F894DEBF0FBECDBF20
S11303F0DF91CF911F9108950E94E00066E081E0B3
S11304000E943C0260E081E00E94B8000E94DC008F
S113041080E690E00E9471016AE082E00E94B800E8
S113042087E00E9469022EEE32E0AC01429FC001D7
S1130430439F900D529F900D1124BC0180E090E0E9
S11304400E94940320E030ED4FEB54E40E94F30249
S11304500E946503CB010E94990183E40E94090173
S11304600E94DC005FEF84E39CE0515080409040A8
S1130470E1F700C00000D0CF96B1916096B9813009
S113048059F018F0823079F014C087B18F7B87B9A6
S113049087B18F7787B90DC087B1806487B987B179
S11304A08F7787B906C087B1806487B987B18068C0
S11304B087B986B1887F86B986B1682B66B986B15B
S11304C0806886B908953699FECF86B18F7E86B945
S11304D0089527B197B1207E892B822B87B986B1E5
S11304E0806486B90E94630284B195B190E0089556
S11304F01F920F920FB60F9211242F933F934F9395
S11305005F936F937F938F939F93AF93BF93EF9377
S1130510FF93E0916C00F0916D00309709F009951C
S1130520FF91EF91BF91AF919F918F917F916F91C7
S11305305F914F913F912F910F900FBE0F901F909D
S113054018951F920F920FB60F9211242F933F9379
S11305504F935F936F937F938F939F93AF93BF93C7
S1130560EF93FF93E0916A00F0916B00309709F0EC
S11305700995FF91EF91BF91AF919F918F917F91D9
S11305806F915F914F913F912F910F900FBE0F90FC
S11305901F9018951F920F920FB60F9211242F934C
S11305A03F934F935F936F937F938F939F93AF93F7
S11305B0BF93EF93FF93E0916800F0916900309747
S11305C009F00995FF91EF91BF91AF919F918F91A0
S11305D07F916F915F914F913F912F910F900FBE3B
S11305E00F901F9018950E9407030C94E8030E9433
S11305F0E10358F00E94DA0340F029F45F3F29F048
S11306000C94D10351110C941C040C94D7030E9434
S1130610F90368F39923B1F3552391F3951B550B13
S1130620BB27AA2762177307840738F09F5F5F4FC1
S1130630220F331F441FAA1FA9F335D00E2E3AF000
S1130640E0E832D091505040E695001CCAF72BD018
S1130650FE2F29D0660F771F881FBB1F2617370769
S11306604807AB07B0E809F0BB0B802DBF01FF279B
S113067093585F4F3AF09E3F510578F00C94D103A4
S11306800C941C045F3FE4F3983ED4F3869577956D
S11306906795B795F7959F5FC9F7880F911D969554
S11306A0879597F90895E1E0660F771F881FBB1FB0
S11306B0621773078407BA0720F0621B730B840B5D
S11306C0BA0BEE1F88F7E09508950E94010488F0A4
S11306D09F5798F0B92F9927B751B0F0E1F0660F02
S11306E0771F881F991F1AF0BA95C9F714C0B13043
S11306F091F00E941B04B1E008950C941B04672F31
S1130700782F8827B85F39F0B93FCCF38695779571
S11307106795B395D9F73EF490958095709561955A
S11307207F4F8F4F9F4F0895E89409C097FB3EF485
S113073090958095709561957F4F8F4F9F4F99232A
S1130740A9F0F92F96E9BB279395F69587957795A8
S11307506795B795F111F8CFFAF4BB0F11F460FF68
S11307601BC06F5F7F4F8F4F9F4F16C0882311F0C0
S113077096E911C0772321F09EE8872F762F05C0D4
S1130780662371F096E8862F70E060E02AF09A956F
S1130790660F771F881FDAF7880F9695879597F964
S11307A0089597F99F6780E870E060E008959FEFEF
S11307B080EC089500240A941616170618060906F4
S11307C0089500240A9412161306140605060895C3
S11307D0092E0394000C11F4882352F0BB0F40F44B
S11307E0BF2B11F460FF04C06F5F7F4F8F4F9F4F8B
S11307F0089557FD9058440F551F59F05F3F71F00D
S11308004795880F97FB991F61F09F3F79F0879573
S11308100895121613061406551FF2CF4695F1DFFC
S113082008C0161617061806991FF1CF869571058C
S1130830610508940895E894BB2766277727CB01C0
S113084097F90895A29FB001B39FC001A39F700DB3
S1130850811D1124911DB29F700D811D1124911DC4
S10908600895F894FFCF97
S10B08664C6D3335203A2000EB
S9030000FC
