:100000000C9434000C943E000C943E000C943E0082
:100010000C943E000C943E000C943E000C943E0068
:100020000C943E000C943E000C943E000C943E0058
:100030000C943E000C943E000C943E000C943E0048
:100040000C943E000C943E000C943E000C943E0038
:100050000C943E004A004E0055005C0063006A00AC
:10006000710078007F00860011241FBECFE5D8E024
:10007000DEBFCDBF0E948D000C94D3000C94000015
:1000800090E08A30910508F047C0FC01E65DFF4F23
:100090000C94CD0085B38F7085BB089585B38061C6
:1000A00085BB85B38F7185BB089585B3806285BBA1
:1000B00085B38F7285BB089585B3806385BB85B397
:1000C0008F7385BB089585B3806485BB85B38F74BA
:1000D00085BB089585B3806585BB85B38F7585BB6A
:1000E000089585B3806685BB85B38F7685BB0895FB
:1000F00085B3806785BB85B38F7785BB089585B34E
:10010000806885BB85B38F7885BB089585B380698A
:1001100085BB85B38F7985BB08958AB38FEF8ABB82
:100120008BB31BBAD0E036C0CDECDC9FC12D1124BF
:10013000C695C695C6959C2F990F892F880F880F55
:10014000890F9D2F981B892F0E9440008BB38460DC
:100150008BBB83EC99E00197F1F700C000008BB3F3
:100160008B7F8BBB8C2F0E9440008BB388608BBB36
:1001700083EC99E00197F1F700C000008BB3877F13
:100180008BBB0F5F1F4F02C000E010E00231110572
:100190005CF2DF5FD436C0F3C5CFEE0FFF1F0590D2
:0A01A000F491E02D0994F894FFCFCC
:00000001FF
